:020000040000FA
:100000000128831203138501860183168501860169
:100010000317880183120313C030A0000630A00428
:10002000200886003C206030A0000C30A00420088E
:1000300086003C203830A000200886003C20A00D1F
:100040000830A004200886003C20C030A0000C30FE
:10005000A004200886003C208030A0000630A004C8
:10006000200886003C200330A000200886003C20A9
:10007000200886003C200C28D030A100D030A200FF
:0A008000A20B4028A10B3E28080047
:04008A00003400340A
:02400E00D528B3
:02401000FF3F70
:00000001FF
